{
  "contractName": "MedicalAudit",
  "abi": [
    {
      "anonymous": false,
      "inputs": [
        {
          "indexed": true,
          "internalType": "string",
          "name": "userId",
          "type": "string"
        },
        {
          "indexed": true,
          "internalType": "string",
          "name": "resourceId",
          "type": "string"
        },
        {
          "indexed": false,
          "internalType": "string",
          "name": "action",
          "type": "string"
        },
        {
          "indexed": false,
          "internalType": "uint256",
          "name": "timestamp",
          "type": "uint256"
        }
      ],
      "name": "AuditLogCreated",
      "type": "event"
    },
    {
      "inputs": [
        {
          "internalType": "uint256",
          "name": "",
          "type": "uint256"
        }
      ],
      "name": "logs",
      "outputs": [
        {
          "internalType": "string",
          "name": "userId",
          "type": "string"
        },
        {
          "internalType": "string",
          "name": "action",
          "type": "string"
        },
        {
          "internalType": "string",
          "name": "resourceId",
          "type": "string"
        },
        {
          "internalType": "uint256",
          "name": "timestamp",
          "type": "uint256"
        },
        {
          "internalType": "string",
          "name": "dataHash",
          "type": "string"
        }
      ],
      "stateMutability": "view",
      "type": "function",
      "constant": true
    },
    {
      "inputs": [
        {
          "internalType": "string",
          "name": "_userId",
          "type": "string"
        },
        {
          "internalType": "string",
          "name": "_action",
          "type": "string"
        },
        {
          "internalType": "string",
          "name": "_resourceId",
          "type": "string"
        },
        {
          "internalType": "string",
          "name": "_dataHash",
          "type": "string"
        }
      ],
      "name": "logAction",
      "outputs": [],
      "stateMutability": "nonpayable",
      "type": "function"
    },
    {
      "inputs": [],
      "name": "getLogCount",
      "outputs": [
        {
          "internalType": "uint256",
          "name": "",
          "type": "uint256"
        }
      ],
      "stateMutability": "view",
      "type": "function",
      "constant": true
    },
    {
      "inputs": [
        {
          "internalType": "uint256",
          "name": "_index",
          "type": "uint256"
        }
      ],
      "name": "getLog",
      "outputs": [
        {
          "internalType": "string",
          "name": "userId",
          "type": "string"
        },
        {
          "internalType": "string",
          "name": "action",
          "type": "string"
        },
        {
          "internalType": "string",
          "name": "resourceId",
          "type": "string"
        },
        {
          "internalType": "uint256",
          "name": "timestamp",
          "type": "uint256"
        },
        {
          "internalType": "string",
          "name": "dataHash",
          "type": "string"
        }
      ],
      "stateMutability": "view",
      "type": "function",
      "constant": true
    }
  ],
  "bytecode": "0x608060405234801561001057600080fd5b50610d45806100206000396000f3fe608060405234801561001057600080fd5b506004361061004c5760003560e01c80633206b2c614610051578063618033db14610085578063e79899bd146100a3578063fb5b233b146100d7575b600080fd5b61006b600480360381019061006691906109b0565b6100f3565b60405161007c959493929190610aa9565b60405180910390f35b61008d610418565b60405161009a9190610b68565b60405180910390f35b6100bd60048036038101906100b891906109b0565b610424565b6040516100ce959493929190610aa9565b60405180910390f35b6100f160048036038101906100ec91906108ed565b61068a565b005b6060806060600060606000805490508610610143576040517f08c379a000000000000000000000000000000000000000000000000000000000815260040161013a90610b48565b60405180910390fd5b600080878154811061017e577f4e487b7100000000000000000000000000000000000000000000000000000000600052603260045260246000fd5b90600052602060002090600502016040518060a00160405290816000820180546101a790610c57565b80601f01602080910402602001604051908101604052809291908181526020018280546101d390610c57565b80156102205780601f106101f557610100808354040283529160200191610220565b820191906000526020600020905b81548152906001019060200180831161020357829003601f168201915b5050505050815260200160018201805461023990610c57565b80601f016020809104026020016040519081016040528092919081815260200182805461026590610c57565b80156102b25780601f10610287576101008083540402835291602001916102b2565b820191906000526020600020905b81548152906001019060200180831161029557829003601f168201915b505050505081526020016002820180546102cb90610c57565b80601f01602080910402602001604051908101604052809291908181526020018280546102f790610c57565b80156103445780601f1061031957610100808354040283529160200191610344565b820191906000526020600020905b81548152906001019060200180831161032757829003601f168201915b505050505081526020016003820154815260200160048201805461036790610c57565b80601f016020809104026020016040519081016040528092919081815260200182805461039390610c57565b80156103e05780601f106103b5576101008083540402835291602001916103e0565b820191906000526020600020905b8154815290600101906020018083116103c357829003601f168201915b505050505081525050905080600001518160200151826040015183606001518460800151955095509550955095505091939590929450565b60008080549050905090565b6000818154811061043457600080fd5b906000526020600020906005020160009150905080600001805461045790610c57565b80601f016020809104026020016040519081016040528092919081815260200182805461048390610c57565b80156104d05780601f106104a5576101008083540402835291602001916104d0565b820191906000526020600020905b8154815290600101906020018083116104b357829003601f168201915b5050505050908060010180546104e590610c57565b80601f016020809104026020016040519081016040528092919081815260200182805461051190610c57565b801561055e5780601f106105335761010080835404028352916020019161055e565b820191906000526020600020905b81548152906001019060200180831161054157829003601f168201915b50505050509080600201805461057390610c57565b80601f016020809104026020016040519081016040528092919081815260200182805461059f90610c57565b80156105ec5780601f106105c1576101008083540402835291602001916105ec565b820191906000526020600020905b8154815290600101906020018083116105cf57829003601f168201915b50505050509080600301549080600401805461060790610c57565b80601f016020809104026020016040519081016040528092919081815260200182805461063390610c57565b80156106805780601f1061065557610100808354040283529160200191610680565b820191906000526020600020905b81548152906001019060200180831161066357829003601f168201915b5050505050905085565b60006040518060a00160405280868152602001858152602001848152602001428152602001838152509050600081908060018154018082558091505060019003906000526020600020906005020160009091909190915060008201518160000190805190602001906106fd9291906107cd565b50602082015181600101908051906020019061071a9291906107cd565b5060408201518160020190805190602001906107379291906107cd565b5060608201518160030155608082015181600401908051906020019061075e9291906107cd565b5050508260405161076f9190610a92565b6040518091039020856040516107859190610a92565b60405180910390207f58dd5fb5057704c74005849e50c5f548e85ba4323842d237a5fc6e4810b295e486426040516107be929190610b18565b60405180910390a35050505050565b8280546107d990610c57565b90600052602060002090601f0160209004810192826107fb5760008555610842565b82601f1061081457805160ff1916838001178555610842565b82800160010185558215610842579182015b82811115610841578251825591602001919060010190610826565b5b50905061084f9190610853565b5090565b5b8082111561086c576000816000905550600101610854565b5090565b600061088361087e84610bb4565b610b83565b90508281526020810184848401111561089b57600080fd5b6108a6848285610c15565b509392505050565b600082601f8301126108bf57600080fd5b81356108cf848260208601610870565b91505092915050565b6000813590506108e781610cf8565b92915050565b6000806000806080858703121561090357600080fd5b600085013567ffffffffffffffff81111561091d57600080fd5b610929878288016108ae565b945050602085013567ffffffffffffffff81111561094657600080fd5b610952878288016108ae565b935050604085013567ffffffffffffffff81111561096f57600080fd5b61097b878288016108ae565b925050606085013567ffffffffffffffff81111561099857600080fd5b6109a4878288016108ae565b91505092959194509250565b6000602082840312156109c257600080fd5b60006109d0848285016108d8565b91505092915050565b60006109e482610be4565b6109ee8185610bef565b93506109fe818560208601610c24565b610a0781610ce7565b840191505092915050565b6000610a1d82610be4565b610a278185610c00565b9350610a37818560208601610c24565b80840191505092915050565b6000610a50601383610bef565b91507f496e646578206f7574206f6620626f756e6473000000000000000000000000006000830152602082019050919050565b610a8c81610c0b565b82525050565b6000610a9e8284610a12565b915081905092915050565b600060a0820190508181036000830152610ac381886109d9565b90508181036020830152610ad781876109d9565b90508181036040830152610aeb81866109d9565b9050610afa6060830185610a83565b8181036080830152610b0c81846109d9565b90509695505050505050565b60006040820190508181036000830152610b3281856109d9565b9050610b416020830184610a83565b9392505050565b60006020820190508181036000830152610b6181610a43565b9050919050565b6000602082019050610b7d6000830184610a83565b92915050565b6000604051905081810181811067ffffffffffffffff82111715610baa57610ba9610cb8565b5b8060405250919050565b600067ffffffffffffffff821115610bcf57610bce610cb8565b5b601f19601f8301169050602081019050919050565b600081519050919050565b600082825260208201905092915050565b600081905092915050565b6000819050919050565b82818337600083830152505050565b60005b83811015610c42578082015181840152602081019050610c27565b83811115610c51576000848401525b50505050565b60006002820490506001821680610c6f57607f821691505b60208210811415610c8357610c82610c89565b5b50919050565b7f4e487b7100000000000000000000000000000000000000000000000000000000600052602260045260246000fd5b7f4e487b7100000000000000000000000000000000000000000000000000000000600052604160045260246000fd5b6000601f19601f8301169050919050565b610d0181610c0b565b8114610d0c57600080fd5b5056fea26469706673582212206d569e1088b95ea1de1e2c049ac7a12cfefc2933ca759ebd479c9b89beffcb7c64736f6c63430008000033",
  "immutableReferences": {},
  "source": "// SPDX-License-Identifier: MIT\r\n// Force Recompile: Final Attempt - Build folder removed manually\r\npragma solidity ^0.8.0;\r\n\r\n/**\r\n * @title MedicalAudit\r\n * @dev Contrat d'audit pour le Kit Commun Hospitalier (Sujet 1).\r\n * Ce contrat permet de stocker des preuves d'intgrit (logs) de manire immuable.\r\n * \r\n * RGPD COMPLIANCE:\r\n * - Ce contrat ne stocke AUCUNE donne mdicale en clair.\r\n * - Il ne stocke que des identifiants techniques (UUID) et des hashs.\r\n */\r\ncontract MedicalAudit {\r\n\r\n    // Structure defines a single audit log entry\r\n    // Conforme  l'Atelier 2 - Besoins Fonctionnels\r\n    struct Log {\r\n        string userId;        // ID de l'utilisateur qui a fait l'action\r\n        string action;        // Type d'action (CREATE, READ, UPDATE, DELETE)\r\n        string resourceId;    // ID de la ressource concerne (PatientID, AppointmentID)\r\n        uint256 timestamp;    // Horodatage de l'action\r\n        string dataHash;      // Hash SHA-256 de l'tat des donnes (Preuve d'intgrit)\r\n    }\r\n\r\n    // Liste de tous les logs (Tableau dynamique)\r\n    Log[] public logs;\r\n\r\n    // Event mis  chaque nouvelle action.\r\n    // L'indexation (indexed) permet au service Audit de filtrer rapidement sans tout relire.\r\n    event AuditLogCreated(\r\n        string indexed userId, \r\n        string indexed resourceId, \r\n        string action, \r\n        uint256 timestamp\r\n    );\r\n\r\n    /**\r\n     * @dev Enregistre une nouvelle action dans la blockchain.\r\n     * @param _userId Identifiant technique de l'utilisateur (ex: UUID keycloak)\r\n     * @param _action Type d'action (ex: \"CREATE_PATIENT\")\r\n     * @param _resourceId Identifiant technique de la ressource (ex: \"12345\")\r\n     * @param _dataHash Hash des donnes sensibles (ex: sha256(json))\r\n     */\r\n    function logAction(\r\n        string memory _userId,\r\n        string memory _action,\r\n        string memory _resourceId,\r\n        string memory _dataHash\r\n    ) public {\r\n        \r\n        // Cration du log\r\n        // Note: block.timestamp est l'heure du bloc (infalsifiable)\r\n        Log memory newLog = Log({\r\n            userId: _userId,\r\n            action: _action,\r\n            resourceId: _resourceId,\r\n            timestamp: block.timestamp,\r\n            dataHash: _dataHash\r\n        });\r\n\r\n        // Enregistrement dans le stockage permanent de la blockchain\r\n        logs.push(newLog);\r\n\r\n        // mission de l'vnement pour les couteurs externes (Microservice Audit)\r\n        emit AuditLogCreated(_userId, _resourceId, _action, block.timestamp);\r\n    }\r\n\r\n    /**\r\n     * @dev Retourne le nombre total de logs.\r\n     */\r\n    function getLogCount() public view returns (uint256) {\r\n        return logs.length;\r\n    }\r\n\r\n    /**\r\n     * @dev Rcupre un log spcifique par son index.\r\n     */\r\n    function getLog(uint256 _index) public view returns (\r\n        string memory userId,\r\n        string memory action,\r\n        string memory resourceId,\r\n        uint256 timestamp,\r\n        string memory dataHash\r\n    ) {\r\n        require(_index < logs.length, \"Index out of bounds\");\r\n        Log memory log = logs[_index];\r\n        return (log.userId, log.action, log.resourceId, log.timestamp, log.dataHash);\r\n    }\r\n}\r\n",
  "sourcePath": "/app/smart-contracts/MedicalAudit.sol",
  "compiler": {
    "name": "solc",
    "version": "0.8.0+commit.c7dfd78e.Emscripten.clang"
  },
  "schemaVersion": "3.4.16",
  "updatedAt": "2026-02-07T01:13:43.780Z",
  "networkType": "ethereum",
  "devdoc": {
    "details": "Contrat d'audit pour le Kit Commun Hospitalier (Sujet 1). Ce contrat permet de stocker des preuves d'intgrit (logs) de manire immuable.  RGPD COMPLIANCE: - Ce contrat ne stocke AUCUNE donne mdicale en clair. - Il ne stocke que des identifiants techniques (UUID) et des hashs.",
    "kind": "dev",
    "methods": {
      "getLog(uint256)": {
        "details": "Rcupre un log spcifique par son index."
      },
      "getLogCount()": {
        "details": "Retourne le nombre total de logs."
      },
      "logAction(string,string,string,string)": {
        "details": "Enregistre une nouvelle action dans la blockchain.",
        "params": {
          "_action": "Type d'action (ex: \"CREATE_PATIENT\")",
          "_dataHash": "Hash des donnes sensibles (ex: sha256(json))",
          "_resourceId": "Identifiant technique de la ressource (ex: \"12345\")",
          "_userId": "Identifiant technique de l'utilisateur (ex: UUID keycloak)"
        }
      }
    },
    "title": "MedicalAudit",
    "version": 1
  },
  "userdoc": {
    "kind": "user",
    "methods": {},
    "version": 1
  }
}